{
  "_format": "hh-sol-artifact-1",
  "contractName": "ConcertTicketMarketplace",
  "sourceName": "contracts/ConcertTicketMarketplace.sol",
  "abi": [
    {
      "inputs": [
        {
          "internalType": "string",
          "name": "_name",
          "type": "string"
        },
        {
          "internalType": "string",
          "name": "_symbol",
          "type": "string"
        }
      ],
      "stateMutability": "nonpayable",
      "type": "constructor"
    },
    {
      "inputs": [],
      "name": "ERC721EnumerableForbiddenBatchMint",
      "type": "error"
    },
    {
      "inputs": [
        {
          "internalType": "address",
          "name": "sender",
          "type": "address"
        },
        {
          "internalType": "uint256",
          "name": "tokenId",
          "type": "uint256"
        },
        {
          "internalType": "address",
          "name": "owner",
          "type": "address"
        }
      ],
      "name": "ERC721IncorrectOwner",
      "type": "error"
    },
    {
      "inputs": [
        {
          "internalType": "address",
          "name": "operator",
          "type": "address"
        },
        {
          "internalType": "uint256",
          "name": "tokenId",
          "type": "uint256"
        }
      ],
      "name": "ERC721InsufficientApproval",
      "type": "error"
    },
    {
      "inputs": [
        {
          "internalType": "address",
          "name": "approver",
          "type": "address"
        }
      ],
      "name": "ERC721InvalidApprover",
      "type": "error"
    },
    {
      "inputs": [
        {
          "internalType": "address",
          "name": "operator",
          "type": "address"
        }
      ],
      "name": "ERC721InvalidOperator",
      "type": "error"
    },
    {
      "inputs": [
        {
          "internalType": "address",
          "name": "owner",
          "type": "address"
        }
      ],
      "name": "ERC721InvalidOwner",
      "type": "error"
    },
    {
      "inputs": [
        {
          "internalType": "address",
          "name": "receiver",
          "type": "address"
        }
      ],
      "name": "ERC721InvalidReceiver",
      "type": "error"
    },
    {
      "inputs": [
        {
          "internalType": "address",
          "name": "sender",
          "type": "address"
        }
      ],
      "name": "ERC721InvalidSender",
      "type": "error"
    },
    {
      "inputs": [
        {
          "internalType": "uint256",
          "name": "tokenId",
          "type": "uint256"
        }
      ],
      "name": "ERC721NonexistentToken",
      "type": "error"
    },
    {
      "inputs": [
        {
          "internalType": "address",
          "name": "owner",
          "type": "address"
        },
        {
          "internalType": "uint256",
          "name": "index",
          "type": "uint256"
        }
      ],
      "name": "ERC721OutOfBoundsIndex",
      "type": "error"
    },
    {
      "inputs": [
        {
          "internalType": "address",
          "name": "owner",
          "type": "address"
        }
      ],
      "name": "OwnableInvalidOwner",
      "type": "error"
    },
    {
      "inputs": [
        {
          "internalType": "address",
          "name": "account",
          "type": "address"
        }
      ],
      "name": "OwnableUnauthorizedAccount",
      "type": "error"
    },
    {
      "anonymous": false,
      "inputs": [
        {
          "indexed": true,
          "internalType": "address",
          "name": "owner",
          "type": "address"
        },
        {
          "indexed": true,
          "internalType": "address",
          "name": "approved",
          "type": "address"
        },
        {
          "indexed": true,
          "internalType": "uint256",
          "name": "tokenId",
          "type": "uint256"
        }
      ],
      "name": "Approval",
      "type": "event"
    },
    {
      "anonymous": false,
      "inputs": [
        {
          "indexed": true,
          "internalType": "address",
          "name": "owner",
          "type": "address"
        },
        {
          "indexed": true,
          "internalType": "address",
          "name": "operator",
          "type": "address"
        },
        {
          "indexed": false,
          "internalType": "bool",
          "name": "approved",
          "type": "bool"
        }
      ],
      "name": "ApprovalForAll",
      "type": "event"
    },
    {
      "anonymous": false,
      "inputs": [
        {
          "indexed": false,
          "internalType": "uint256",
          "name": "eventId",
          "type": "uint256"
        },
        {
          "indexed": false,
          "internalType": "string",
          "name": "name",
          "type": "string"
        },
        {
          "indexed": false,
          "internalType": "uint256",
          "name": "date",
          "type": "uint256"
        },
        {
          "indexed": false,
          "internalType": "uint256",
          "name": "ticketPrice",
          "type": "uint256"
        },
        {
          "indexed": false,
          "internalType": "uint256",
          "name": "totalSupply",
          "type": "uint256"
        },
        {
          "indexed": false,
          "internalType": "address",
          "name": "organizer",
          "type": "address"
        }
      ],
      "name": "EventCreated",
      "type": "event"
    },
    {
      "anonymous": false,
      "inputs": [
        {
          "indexed": false,
          "internalType": "uint256",
          "name": "eventId",
          "type": "uint256"
        },
        {
          "indexed": false,
          "internalType": "string",
          "name": "name",
          "type": "string"
        },
        {
          "indexed": false,
          "internalType": "uint256",
          "name": "date",
          "type": "uint256"
        },
        {
          "indexed": false,
          "internalType": "uint256",
          "name": "ticketPrice",
          "type": "uint256"
        },
        {
          "indexed": false,
          "internalType": "uint256",
          "name": "totalSeats",
          "type": "uint256"
        },
        {
          "indexed": false,
          "internalType": "address",
          "name": "organizer",
          "type": "address"
        }
      ],
      "name": "EventCreatedWithAssignedSeating",
      "type": "event"
    },
    {
      "anonymous": false,
      "inputs": [
        {
          "indexed": true,
          "internalType": "address",
          "name": "previousOwner",
          "type": "address"
        },
        {
          "indexed": true,
          "internalType": "address",
          "name": "newOwner",
          "type": "address"
        }
      ],
      "name": "OwnershipTransferred",
      "type": "event"
    },
    {
      "anonymous": false,
      "inputs": [
        {
          "indexed": false,
          "internalType": "uint256",
          "name": "eventId",
          "type": "uint256"
        },
        {
          "indexed": false,
          "internalType": "uint256",
          "name": "tokenId",
          "type": "uint256"
        },
        {
          "indexed": false,
          "internalType": "address",
          "name": "owner",
          "type": "address"
        },
        {
          "indexed": false,
          "internalType": "uint256",
          "name": "seatId",
          "type": "uint256"
        }
      ],
      "name": "TicketPurchased",
      "type": "event"
    },
    {
      "anonymous": false,
      "inputs": [
        {
          "indexed": true,
          "internalType": "address",
          "name": "from",
          "type": "address"
        },
        {
          "indexed": true,
          "internalType": "address",
          "name": "to",
          "type": "address"
        },
        {
          "indexed": true,
          "internalType": "uint256",
          "name": "tokenId",
          "type": "uint256"
        }
      ],
      "name": "Transfer",
      "type": "event"
    },
    {
      "inputs": [
        {
          "internalType": "address",
          "name": "to",
          "type": "address"
        },
        {
          "internalType": "uint256",
          "name": "tokenId",
          "type": "uint256"
        }
      ],
      "name": "approve",
      "outputs": [],
      "stateMutability": "nonpayable",
      "type": "function"
    },
    {
      "inputs": [
        {
          "internalType": "address",
          "name": "owner",
          "type": "address"
        }
      ],
      "name": "balanceOf",
      "outputs": [
        {
          "internalType": "uint256",
          "name": "",
          "type": "uint256"
        }
      ],
      "stateMutability": "view",
      "type": "function"
    },
    {
      "inputs": [
        {
          "internalType": "uint256",
          "name": "_eventId",
          "type": "uint256"
        },
        {
          "internalType": "uint256",
          "name": "_seatId",
          "type": "uint256"
        }
      ],
      "name": "buyTicket",
      "outputs": [],
      "stateMutability": "payable",
      "type": "function"
    },
    {
      "inputs": [
        {
          "internalType": "string",
          "name": "_name",
          "type": "string"
        },
        {
          "internalType": "uint256",
          "name": "_date",
          "type": "uint256"
        },
        {
          "internalType": "uint256",
          "name": "_ticketPrice",
          "type": "uint256"
        },
        {
          "internalType": "uint256",
          "name": "_totalSupply",
          "type": "uint256"
        },
        {
          "internalType": "bool",
          "name": "_isAssignedSeating",
          "type": "bool"
        },
        {
          "internalType": "uint256",
          "name": "_totalSeats",
          "type": "uint256"
        }
      ],
      "name": "createEvent",
      "outputs": [],
      "stateMutability": "nonpayable",
      "type": "function"
    },
    {
      "inputs": [
        {
          "internalType": "uint256",
          "name": "",
          "type": "uint256"
        }
      ],
      "name": "events",
      "outputs": [
        {
          "internalType": "uint256",
          "name": "eventId",
          "type": "uint256"
        },
        {
          "internalType": "string",
          "name": "name",
          "type": "string"
        },
        {
          "internalType": "uint256",
          "name": "date",
          "type": "uint256"
        },
        {
          "internalType": "uint256",
          "name": "ticketPrice",
          "type": "uint256"
        },
        {
          "internalType": "uint256",
          "name": "totalSupply",
          "type": "uint256"
        },
        {
          "internalType": "uint256",
          "name": "sold",
          "type": "uint256"
        },
        {
          "internalType": "address",
          "name": "organizer",
          "type": "address"
        },
        {
          "internalType": "bool",
          "name": "isAssignedSeating",
          "type": "bool"
        },
        {
          "internalType": "uint256",
          "name": "totalSeats",
          "type": "uint256"
        }
      ],
      "stateMutability": "view",
      "type": "function"
    },
    {
      "inputs": [],
      "name": "getAllEvents",
      "outputs": [
        {
          "components": [
            {
              "internalType": "uint256",
              "name": "eventId",
              "type": "uint256"
            },
            {
              "internalType": "string",
              "name": "name",
              "type": "string"
            },
            {
              "internalType": "uint256",
              "name": "date",
              "type": "uint256"
            },
            {
              "internalType": "uint256",
              "name": "ticketPrice",
              "type": "uint256"
            },
            {
              "internalType": "uint256",
              "name": "totalSupply",
              "type": "uint256"
            },
            {
              "internalType": "uint256",
              "name": "sold",
              "type": "uint256"
            },
            {
              "internalType": "address",
              "name": "organizer",
              "type": "address"
            },
            {
              "internalType": "bool",
              "name": "isAssignedSeating",
              "type": "bool"
            },
            {
              "internalType": "uint256",
              "name": "totalSeats",
              "type": "uint256"
            }
          ],
          "internalType": "struct ConcertTicketMarketplace.Event[]",
          "name": "",
          "type": "tuple[]"
        }
      ],
      "stateMutability": "view",
      "type": "function"
    },
    {
      "inputs": [
        {
          "internalType": "uint256",
          "name": "tokenId",
          "type": "uint256"
        }
      ],
      "name": "getApproved",
      "outputs": [
        {
          "internalType": "address",
          "name": "",
          "type": "address"
        }
      ],
      "stateMutability": "view",
      "type": "function"
    },
    {
      "inputs": [
        {
          "internalType": "uint256",
          "name": "_eventId",
          "type": "uint256"
        }
      ],
      "name": "getEventDetails",
      "outputs": [
        {
          "components": [
            {
              "internalType": "uint256",
              "name": "eventId",
              "type": "uint256"
            },
            {
              "internalType": "string",
              "name": "name",
              "type": "string"
            },
            {
              "internalType": "uint256",
              "name": "date",
              "type": "uint256"
            },
            {
              "internalType": "uint256",
              "name": "ticketPrice",
              "type": "uint256"
            },
            {
              "internalType": "uint256",
              "name": "totalSupply",
              "type": "uint256"
            },
            {
              "internalType": "uint256",
              "name": "sold",
              "type": "uint256"
            },
            {
              "internalType": "address",
              "name": "organizer",
              "type": "address"
            },
            {
              "internalType": "bool",
              "name": "isAssignedSeating",
              "type": "bool"
            },
            {
              "internalType": "uint256",
              "name": "totalSeats",
              "type": "uint256"
            }
          ],
          "internalType": "struct ConcertTicketMarketplace.Event",
          "name": "",
          "type": "tuple"
        }
      ],
      "stateMutability": "view",
      "type": "function"
    },
    {
      "inputs": [
        {
          "internalType": "address",
          "name": "_owner",
          "type": "address"
        }
      ],
      "name": "getTicketsOfOwner",
      "outputs": [
        {
          "internalType": "uint256[]",
          "name": "",
          "type": "uint256[]"
        }
      ],
      "stateMutability": "view",
      "type": "function"
    },
    {
      "inputs": [
        {
          "internalType": "address",
          "name": "owner",
          "type": "address"
        },
        {
          "internalType": "address",
          "name": "operator",
          "type": "address"
        }
      ],
      "name": "isApprovedForAll",
      "outputs": [
        {
          "internalType": "bool",
          "name": "",
          "type": "bool"
        }
      ],
      "stateMutability": "view",
      "type": "function"
    },
    {
      "inputs": [
        {
          "internalType": "uint256",
          "name": "_eventId",
          "type": "uint256"
        },
        {
          "internalType": "uint256",
          "name": "_seatId",
          "type": "uint256"
        }
      ],
      "name": "isSeatSold",
      "outputs": [
        {
          "internalType": "bool",
          "name": "",
          "type": "bool"
        }
      ],
      "stateMutability": "view",
      "type": "function"
    },
    {
      "inputs": [],
      "name": "name",
      "outputs": [
        {
          "internalType": "string",
          "name": "",
          "type": "string"
        }
      ],
      "stateMutability": "view",
      "type": "function"
    },
    {
      "inputs": [],
      "name": "nextEventId",
      "outputs": [
        {
          "internalType": "uint256",
          "name": "",
          "type": "uint256"
        }
      ],
      "stateMutability": "view",
      "type": "function"
    },
    {
      "inputs": [],
      "name": "nextTokenId",
      "outputs": [
        {
          "internalType": "uint256",
          "name": "",
          "type": "uint256"
        }
      ],
      "stateMutability": "view",
      "type": "function"
    },
    {
      "inputs": [],
      "name": "owner",
      "outputs": [
        {
          "internalType": "address",
          "name": "",
          "type": "address"
        }
      ],
      "stateMutability": "view",
      "type": "function"
    },
    {
      "inputs": [
        {
          "internalType": "uint256",
          "name": "tokenId",
          "type": "uint256"
        }
      ],
      "name": "ownerOf",
      "outputs": [
        {
          "internalType": "address",
          "name": "",
          "type": "address"
        }
      ],
      "stateMutability": "view",
      "type": "function"
    },
    {
      "inputs": [],
      "name": "renounceOwnership",
      "outputs": [],
      "stateMutability": "nonpayable",
      "type": "function"
    },
    {
      "inputs": [
        {
          "internalType": "address",
          "name": "from",
          "type": "address"
        },
        {
          "internalType": "address",
          "name": "to",
          "type": "address"
        },
        {
          "internalType": "uint256",
          "name": "tokenId",
          "type": "uint256"
        }
      ],
      "name": "safeTransferFrom",
      "outputs": [],
      "stateMutability": "nonpayable",
      "type": "function"
    },
    {
      "inputs": [
        {
          "internalType": "address",
          "name": "from",
          "type": "address"
        },
        {
          "internalType": "address",
          "name": "to",
          "type": "address"
        },
        {
          "internalType": "uint256",
          "name": "tokenId",
          "type": "uint256"
        },
        {
          "internalType": "bytes",
          "name": "data",
          "type": "bytes"
        }
      ],
      "name": "safeTransferFrom",
      "outputs": [],
      "stateMutability": "nonpayable",
      "type": "function"
    },
    {
      "inputs": [
        {
          "internalType": "uint256",
          "name": "",
          "type": "uint256"
        },
        {
          "internalType": "uint256",
          "name": "",
          "type": "uint256"
        }
      ],
      "name": "seatSold",
      "outputs": [
        {
          "internalType": "bool",
          "name": "",
          "type": "bool"
        }
      ],
      "stateMutability": "view",
      "type": "function"
    },
    {
      "inputs": [
        {
          "internalType": "address",
          "name": "operator",
          "type": "address"
        },
        {
          "internalType": "bool",
          "name": "approved",
          "type": "bool"
        }
      ],
      "name": "setApprovalForAll",
      "outputs": [],
      "stateMutability": "nonpayable",
      "type": "function"
    },
    {
      "inputs": [
        {
          "internalType": "bytes4",
          "name": "interfaceId",
          "type": "bytes4"
        }
      ],
      "name": "supportsInterface",
      "outputs": [
        {
          "internalType": "bool",
          "name": "",
          "type": "bool"
        }
      ],
      "stateMutability": "view",
      "type": "function"
    },
    {
      "inputs": [],
      "name": "symbol",
      "outputs": [
        {
          "internalType": "string",
          "name": "",
          "type": "string"
        }
      ],
      "stateMutability": "view",
      "type": "function"
    },
    {
      "inputs": [
        {
          "internalType": "uint256",
          "name": "",
          "type": "uint256"
        }
      ],
      "name": "tickets",
      "outputs": [
        {
          "internalType": "uint256",
          "name": "eventId",
          "type": "uint256"
        },
        {
          "internalType": "uint256",
          "name": "seatId",
          "type": "uint256"
        }
      ],
      "stateMutability": "view",
      "type": "function"
    },
    {
      "inputs": [
        {
          "internalType": "uint256",
          "name": "index",
          "type": "uint256"
        }
      ],
      "name": "tokenByIndex",
      "outputs": [
        {
          "internalType": "uint256",
          "name": "",
          "type": "uint256"
        }
      ],
      "stateMutability": "view",
      "type": "function"
    },
    {
      "inputs": [
        {
          "internalType": "address",
          "name": "owner",
          "type": "address"
        },
        {
          "internalType": "uint256",
          "name": "index",
          "type": "uint256"
        }
      ],
      "name": "tokenOfOwnerByIndex",
      "outputs": [
        {
          "internalType": "uint256",
          "name": "",
          "type": "uint256"
        }
      ],
      "stateMutability": "view",
      "type": "function"
    },
    {
      "inputs": [
        {
          "internalType": "uint256",
          "name": "tokenId",
          "type": "uint256"
        }
      ],
      "name": "tokenURI",
      "outputs": [
        {
          "internalType": "string",
          "name": "",
          "type": "string"
        }
      ],
      "stateMutability": "view",
      "type": "function"
    },
    {
      "inputs": [],
      "name": "totalSupply",
      "outputs": [
        {
          "internalType": "uint256",
          "name": "",
          "type": "uint256"
        }
      ],
      "stateMutability": "view",
      "type": "function"
    },
    {
      "inputs": [
        {
          "internalType": "address",
          "name": "from",
          "type": "address"
        },
        {
          "internalType": "address",
          "name": "to",
          "type": "address"
        },
        {
          "internalType": "uint256",
          "name": "tokenId",
          "type": "uint256"
        }
      ],
      "name": "transferFrom",
      "outputs": [],
      "stateMutability": "nonpayable",
      "type": "function"
    },
    {
      "inputs": [
        {
          "internalType": "address",
          "name": "newOwner",
          "type": "address"
        }
      ],
      "name": "transferOwnership",
      "outputs": [],
      "stateMutability": "nonpayable",
      "type": "function"
    }
  ],
  "bytecode": "0x60806040526001600e556001600f553480156200001b57600080fd5b5060405162004fd638038062004fd6833981810160405281019062000041919062000352565b338282816000908162000055919062000622565b50806001908162000067919062000622565b505050600073ffffffffffffffffffffffffffffffffffffffff168173ffffffffffffffffffffffffffffffffffffffff1603620000df5760006040517f1e4fbdf7000000000000000000000000000000000000000000000000000000008152600401620000d691906200074e565b60405180910390fd5b620000f081620000f960201b60201c565b5050506200076b565b6000600a60009054906101000a900473ffffffffffffffffffffffffffffffffffffffff16905081600a60006101000a81548173ffffffffffffffffffffffffffffffffffffffff021916908373ffffffffffffffffffffffffffffffffffffffff1602179055508173ffffffffffffffffffffffffffffffffffffffff168173ffffffffffffffffffffffffffffffffffffffff167f8be0079c531659141344cd1fd0a4f28419497f9722a3daafe3b4186f6b6457e060405160405180910390a35050565b6000604051905090565b600080fd5b600080fd5b600080fd5b600080fd5b6000601f19601f8301169050919050565b7f4e487b7100000000000000000000000000000000000000000000000000000000600052604160045260246000fd5b6200022882620001dd565b810181811067ffffffffffffffff821117156200024a5762000249620001ee565b5b80604052505050565b60006200025f620001bf565b90506200026d82826200021d565b919050565b600067ffffffffffffffff82111562000290576200028f620001ee565b5b6200029b82620001dd565b9050602081019050919050565b60005b83811015620002c8578082015181840152602081019050620002ab565b60008484015250505050565b6000620002eb620002e58462000272565b62000253565b9050828152602081018484840111156200030a5762000309620001d8565b5b62000317848285620002a8565b509392505050565b600082601f830112620003375762000336620001d3565b5b815162000349848260208601620002d4565b91505092915050565b600080604083850312156200036c576200036b620001c9565b5b600083015167ffffffffffffffff8111156200038d576200038c620001ce565b5b6200039b858286016200031f565b925050602083015167ffffffffffffffff811115620003bf57620003be620001ce565b5b620003cd858286016200031f565b9150509250929050565b600081519050919050565b7f4e487b7100000000000000000000000000000000000000000000000000000000600052602260045260246000fd5b600060028204905060018216806200042a57607f821691505b60208210810362000440576200043f620003e2565b5b50919050565b60008190508160005260206000209050919050565b60006020601f8301049050919050565b600082821b905092915050565b600060088302620004aa7fffffffffffffffffffffffffffffffffffffffffffffffffffffffffffffffff826200046b565b620004b686836200046b565b95508019841693508086168417925050509392505050565b6000819050919050565b6000819050919050565b600062000503620004fd620004f784620004ce565b620004d8565b620004ce565b9050919050565b6000819050919050565b6200051f83620004e2565b620005376200052e826200050a565b84845462000478565b825550505050565b600090565b6200054e6200053f565b6200055b81848462000514565b505050565b5b8181101562000583576200057760008262000544565b60018101905062000561565b5050565b601f821115620005d2576200059c8162000446565b620005a7846200045b565b81016020851015620005b7578190505b620005cf620005c6856200045b565b83018262000560565b50505b505050565b600082821c905092915050565b6000620005f760001984600802620005d7565b1980831691505092915050565b6000620006128383620005e4565b9150826002028217905092915050565b6200062d82620003d7565b67ffffffffffffffff811115620006495762000648620001ee565b5b62000655825462000411565b6200066282828562000587565b600060209050601f8311600181146200069a576000841562000685578287015190505b62000691858262000604565b86555062000701565b601f198416620006aa8662000446565b60005b82811015620006d457848901518255600182019150602085019450602081019050620006ad565b86831015620006f45784890151620006f0601f891682620005e4565b8355505b6001600288020188555050505b505050505050565b600073ffffffffffffffffffffffffffffffffffffffff82169050919050565b6000620007368262000709565b9050919050565b620007488162000729565b82525050565b60006020820190506200076560008301846200073d565b92915050565b61485b806200077b6000396000f3fe6080604052600436106101cd5760003560e01c806370a08231116100f7578063a22cb46511610095578063e91066f511610064578063e91066f5146106e4578063e985e9c51461070d578063ec38d5a01461074a578063f2fde38b14610787576101cd565b8063a22cb4651461062a578063b88d4fde14610653578063c27a500d1461067c578063c87b56dd146106a7576101cd565b806385fd52f0116100d157806385fd52f01461056c5780638da5cb5b146105a957806395d89b41146105d45780639f9d903a146105ff576101cd565b806370a08231146104ed578063715018a61461052a57806375794a3c14610541576101cd565b806323b872dd1161016f5780634a569f651161013e5780634a569f65146103f85780634f6ccce71461043557806350b44712146104725780636352211e146104b0576101cd565b806323b872dd1461034d578063298ec208146103765780632f745c591461039257806342842e0e146103cf576101cd565b8063095ea7b3116101ab578063095ea7b3146102775780630b791430146102a057806311938c35146102e557806318160ddd14610322576101cd565b806301ffc9a7146101d257806306fdde031461020f578063081812fc1461023a575b600080fd5b3480156101de57600080fd5b506101f960048036038101906101f49190613128565b6107b0565b6040516102069190613170565b60405180910390f35b34801561021b57600080fd5b506102246107c2565b604051610231919061321b565b60405180910390f35b34801561024657600080fd5b50610261600480360381019061025c9190613273565b610854565b60405161026e91906132e1565b60405180910390f35b34801561028357600080fd5b5061029e60048036038101906102999190613328565b610870565b005b3480156102ac57600080fd5b506102c760048036038101906102c29190613273565b610886565b6040516102dc99989796959493929190613377565b60405180910390f35b3480156102f157600080fd5b5061030c6004803603810190610307919061340b565b610989565b6040516103199190613170565b60405180910390f35b34801561032e57600080fd5b50610337610a14565b604051610344919061344b565b60405180910390f35b34801561035957600080fd5b50610374600480360381019061036f9190613466565b610a21565b005b610390600480360381019061038b919061340b565b610b23565b005b34801561039e57600080fd5b506103b960048036038101906103b49190613328565b610ed1565b6040516103c6919061344b565b60405180910390f35b3480156103db57600080fd5b506103f660048036038101906103f19190613466565b610f7a565b005b34801561040457600080fd5b5061041f600480360381019061041a919061340b565b610f9a565b60405161042c9190613170565b60405180910390f35b34801561044157600080fd5b5061045c60048036038101906104579190613273565b610fc9565b604051610469919061344b565b60405180910390f35b34801561047e57600080fd5b5061049960048036038101906104949190613273565b61103f565b6040516104a79291906134b9565b60405180910390f35b3480156104bc57600080fd5b506104d760048036038101906104d29190613273565b611063565b6040516104e491906132e1565b60405180910390f35b3480156104f957600080fd5b50610514600480360381019061050f91906134e2565b611075565b604051610521919061344b565b60405180910390f35b34801561053657600080fd5b5061053f61112f565b005b34801561054d57600080fd5b50610556611143565b604051610563919061344b565b60405180910390f35b34801561057857600080fd5b50610593600480360381019061058e91906134e2565b611149565b6040516105a091906135cd565b60405180910390f35b3480156105b557600080fd5b506105be6111f1565b6040516105cb91906132e1565b60405180910390f35b3480156105e057600080fd5b506105e961121b565b6040516105f6919061321b565b60405180910390f35b34801561060b57600080fd5b506106146112ad565b604051610621919061344b565b60405180910390f35b34801561063657600080fd5b50610651600480360381019061064c919061361b565b6112b3565b005b34801561065f57600080fd5b5061067a60048036038101906106759190613790565b6112c9565b005b34801561068857600080fd5b506106916112ee565b60405161069e9190613a02565b60405180910390f35b3480156106b357600080fd5b506106ce60048036038101906106c99190613273565b61150d565b6040516106db919061321b565b60405180910390f35b3480156106f057600080fd5b5061070b60048036038101906107069190613ac5565b611576565b005b34801561071957600080fd5b50610734600480360381019061072f9190613b6e565b611998565b6040516107419190613170565b60405180910390f35b34801561075657600080fd5b50610771600480360381019061076c9190613273565b611a2c565b60405161077e9190613c73565b60405180910390f35b34801561079357600080fd5b506107ae60048036038101906107a991906134e2565b611be9565b005b60006107bb82611c6f565b9050919050565b6060600080546107d190613cc4565b80601f01602080910402602001604051908101604052809291908181526020018280546107fd90613cc4565b801561084a5780601f1061081f5761010080835404028352916020019161084a565b820191906000526020600020905b81548152906001019060200180831161082d57829003601f168201915b5050505050905090565b600061085f82611ce9565b5061086982611d71565b9050919050565b610882828261087d611dae565b611db6565b5050565b600b6020528060005260406000206000915090508060000154908060010180546108af90613cc4565b80601f01602080910402602001604051908101604052809291908181526020018280546108db90613cc4565b80156109285780601f106108fd57610100808354040283529160200191610928565b820191906000526020600020905b81548152906001019060200180831161090b57829003601f168201915b5050505050908060020154908060030154908060040154908060050154908060060160009054906101000a900473ffffffffffffffffffffffffffffffffffffffff16908060060160149054906101000a900460ff16908060070154905089565b6000808311801561099b5750600e5483105b6109da576040517f08c379a00000000000000000000000000000000000000000000000000000000081526004016109d190613d41565b60405180910390fd5b600d6000848152602001908152602001600020600083815260200190815260200160002060009054906101000a900460ff16905092915050565b6000600880549050905090565b600073ffffffffffffffffffffffffffffffffffffffff168273ffffffffffffffffffffffffffffffffffffffff1603610a935760006040517f64a0ae92000000000000000000000000000000000000000000000000000000008152600401610a8a91906132e1565b60405180910390fd5b6000610aa78383610aa2611dae565b611dc8565b90508373ffffffffffffffffffffffffffffffffffffffff168173ffffffffffffffffffffffffffffffffffffffff1614610b1d578382826040517f64283d7b000000000000000000000000000000000000000000000000000000008152600401610b1493929190613d61565b60405180910390fd5b50505050565b600082118015610b345750600e5482105b610b73576040517f08c379a0000000000000000000000000000000000000000000000000000000008152600401610b6a90613d41565b60405180910390fd5b6000600b6000848152602001908152602001600020905080600201544210610bd0576040517f08c379a0000000000000000000000000000000000000000000000000000000008152600401610bc790613de4565b60405180910390fd5b8060030154341015610c17576040517f08c379a0000000000000000000000000000000000000000000000000000000008152600401610c0e90613e50565b60405180910390fd5b8060060160149054906101000a900460ff1615610dc157600082118015610c42575080600701548211155b610c81576040517f08c379a0000000000000000000000000000000000000000000000000000000008152600401610c7890613ebc565b60405180910390fd5b600d6000848152602001908152602001600020600083815260200190815260200160002060009054906101000a900460ff1615610cf3576040517f08c379a0000000000000000000000000000000000000000000000000000000008152600401610cea90613f28565b60405180910390fd5b6001600d6000858152602001908152602001600020600084815260200190815260200160002060006101000a81548160ff021916908315150217905550604051806040016040528084815260200183815250600c6000600f5481526020019081526020016000206000820151816000015560208201518160010155905050610d7d33600f54611dde565b7fc3b7539e996dc1d1252af1e3c72474162b7a9c7cc7411ca8905732eaf6fff32883600f543385604051610db49493929190613f48565b60405180910390a1610e9a565b8060040154816005015410610e0b576040517f08c379a0000000000000000000000000000000000000000000000000000000008152600401610e0290613fd9565b60405180910390fd5b60405180604001604052808481526020016000815250600c6000600f5481526020019081526020016000206000820151816000015560208201518160010155905050610e5933600f54611dde565b7fc3b7539e996dc1d1252af1e3c72474162b7a9c7cc7411ca8905732eaf6fff32883600f54336000604051610e91949392919061403e565b60405180910390a15b806005016000815480929190610eaf906140b2565b9190505550600f6000815480929190610ec7906140b2565b9190505550505050565b6000610edc83611075565b8210610f215782826040517fa57d13dc000000000000000000000000000000000000000000000000000000008152600401610f189291906140fa565b60405180910390fd5b600660008473ffffffffffffffffffffffffffffffffffffffff1673ffffffffffffffffffffffffffffffffffffffff168152602001908152602001600020600083815260200190815260200160002054905092915050565b610f95838383604051806020016040528060008152506112c9565b505050565b600d6020528160005260406000206020528060005260406000206000915091509054906101000a900460ff1681565b6000610fd3610a14565b8210611019576000826040517fa57d13dc0000000000000000000000000000000000000000000000000000000081526004016110109291906140fa565b60405180910390fd5b6008828154811061102d5761102c614123565b5b90600052602060002001549050919050565b600c6020528060005260406000206000915090508060000154908060010154905082565b600061106e82611ce9565b9050919050565b60008073ffffffffffffffffffffffffffffffffffffffff168273ffffffffffffffffffffffffffffffffffffffff16036110e85760006040517f89c62b640000000000000000000000000000000000000000000000000000000081526004016110df91906132e1565b60405180910390fd5b600360008373ffffffffffffffffffffffffffffffffffffffff1673ffffffffffffffffffffffffffffffffffffffff168152602001908152602001600020549050919050565b611137611dfc565b6111416000611e83565b565b600f5481565b6060600061115683611075565b905060008167ffffffffffffffff81111561117457611173613665565b5b6040519080825280602002602001820160405280156111a25781602001602082028036833780820191505090505b50905060005b828110156111e6576111ba8582610ed1565b8282815181106111cd576111cc614123565b5b60200260200101818152505080806001019150506111a8565b508092505050919050565b6000600a60009054906101000a900473ffffffffffffffffffffffffffffffffffffffff16905090565b60606001805461122a90613cc4565b80601f016020809104026020016040519081016040528092919081815260200182805461125690613cc4565b80156112a35780601f10611278576101008083540402835291602001916112a3565b820191906000526020600020905b81548152906001019060200180831161128657829003601f168201915b5050505050905090565b600e5481565b6112c56112be611dae565b8383611f49565b5050565b6112d4848484610a21565b6112e86112df611dae565b858585856120b8565b50505050565b606060006001600e546113019190614152565b905060008167ffffffffffffffff81111561131f5761131e613665565b5b60405190808252806020026020018201604052801561135857816020015b611345613058565b81526020019060019003908161133d5790505b5090506000600190505b82811161150457600b600082815260200190815260200160002060405180610120016040529081600082015481526020016001820180546113a290613cc4565b80601f01602080910402602001604051908101604052809291908181526020018280546113ce90613cc4565b801561141b5780601f106113f05761010080835404028352916020019161141b565b820191906000526020600020905b8154815290600101906020018083116113fe57829003601f168201915b50505050508152602001600282015481526020016003820154815260200160048201548152602001600582015481526020016006820160009054906101000a900473ffffffffffffffffffffffffffffffffffffffff1673ffffffffffffffffffffffffffffffffffffffff1673ffffffffffffffffffffffffffffffffffffffff1681526020016006820160149054906101000a900460ff16151515158152602001600782015481525050826001836114d59190614152565b815181106114e6576114e5614123565b5b602002602001018190525080806114fc906140b2565b915050611362565b50809250505090565b606061151882611ce9565b506000611523612269565b90506000815111611543576040518060200160405280600081525061156e565b8061154d84612280565b60405160200161155e9291906141c2565b6040516020818303038152906040525b915050919050565b61157e611dfc565b4285116115c0576040517f08c379a00000000000000000000000000000000000000000000000000000000081526004016115b790614232565b60405180910390fd5b60008411611603576040517f08c379a00000000000000000000000000000000000000000000000000000000081526004016115fa906142c4565b60405180910390fd5b81156117c2576000811161164c576040517f08c379a000000000000000000000000000000000000000000000000000000000815260040161164390614356565b60405180910390fd5b604051806101200160405280600e548152602001878152602001868152602001858152602001828152602001600081526020013373ffffffffffffffffffffffffffffffffffffffff16815260200160011515815260200182815250600b6000600e5481526020019081526020016000206000820151816000015560208201518160010190816116dc9190614518565b5060408201518160020155606082015181600301556080820151816004015560a0820151816005015560c08201518160060160006101000a81548173ffffffffffffffffffffffffffffffffffffffff021916908373ffffffffffffffffffffffffffffffffffffffff16021790555060e08201518160060160146101000a81548160ff02191690831515021790555061010082015181600701559050507fa6a0737ababf87db6a66b83eb267dfefd74f9e68fa74e8bd338bbd3ebadeaefb600e5487878785336040516117b5969594939291906145ea565b60405180910390a1611978565b60008311611805576040517f08c379a00000000000000000000000000000000000000000000000000000000081526004016117fc906146c4565b60405180910390fd5b604051806101200160405280600e548152602001878152602001868152602001858152602001848152602001600081526020013373ffffffffffffffffffffffffffffffffffffffff1681526020016000151581526020016000815250600b6000600e5481526020019081526020016000206000820151816000015560208201518160010190816118969190614518565b5060408201518160020155606082015181600301556080820151816004015560a0820151816005015560c08201518160060160006101000a81548173ffffffffffffffffffffffffffffffffffffffff021916908373ffffffffffffffffffffffffffffffffffffffff16021790555060e08201518160060160146101000a81548160ff02191690831515021790555061010082015181600701559050507fca468f9dfa5e8e69f7a91c44f5cba1020284731b0d80eeddfa11d8db501f246b600e54878787873360405161196f969594939291906145ea565b60405180910390a15b600e600081548092919061198b906140b2565b9190505550505050505050565b6000600560008473ffffffffffffffffffffffffffffffffffffffff1673ffffffffffffffffffffffffffffffffffffffff16815260200190815260200160002060008373ffffffffffffffffffffffffffffffffffffffff1673ffffffffffffffffffffffffffffffffffffffff16815260200190815260200160002060009054906101000a900460ff16905092915050565b611a34613058565b600082118015611a455750600e5482105b611a84576040517f08c379a0000000000000000000000000000000000000000000000000000000008152600401611a7b90613d41565b60405180910390fd5b600b60008381526020019081526020016000206040518061012001604052908160008201548152602001600182018054611abd90613cc4565b80601f0160208091040260200160405190810160405280929190818152602001828054611ae990613cc4565b8015611b365780601f10611b0b57610100808354040283529160200191611b36565b820191906000526020600020905b815481529060010190602001808311611b1957829003601f168201915b50505050508152602001600282015481526020016003820154815260200160048201548152602001600582015481526020016006820160009054906101000a900473ffffffffffffffffffffffffffffffffffffffff1673ffffffffffffffffffffffffffffffffffffffff1673ffffffffffffffffffffffffffffffffffffffff1681526020016006820160149054906101000a900460ff161515151581526020016007820154815250509050919050565b611bf1611dfc565b600073ffffffffffffffffffffffffffffffffffffffff168173ffffffffffffffffffffffffffffffffffffffff1603611c635760006040517f1e4fbdf7000000000000000000000000000000000000000000000000000000008152600401611c5a91906132e1565b60405180910390fd5b611c6c81611e83565b50565b60007f780e9d63000000000000000000000000000000000000000000000000000000007bffffffffffffffffffffffffffffffffffffffffffffffffffffffff1916827bffffffffffffffffffffffffffffffffffffffffffffffffffffffff19161480611ce25750611ce18261234e565b5b9050919050565b600080611cf583612430565b9050600073ffffffffffffffffffffffffffffffffffffffff168173ffffffffffffffffffffffffffffffffffffffff1603611d6857826040517f7e273289000000000000000000000000000000000000000000000000000000008152600401611d5f919061344b565b60405180910390fd5b80915050919050565b60006004600083815260200190815260200160002060009054906101000a900473ffffffffffffffffffffffffffffffffffffffff169050919050565b600033905090565b611dc3838383600161246d565b505050565b6000611dd5848484612632565b90509392505050565b611df882826040518060200160405280600081525061274f565b5050565b611e04611dae565b73ffffffffffffffffffffffffffffffffffffffff16611e226111f1565b73ffffffffffffffffffffffffffffffffffffffff1614611e8157611e45611dae565b6040517f118cdaa7000000000000000000000000000000000000000000000000000000008152600401611e7891906132e1565b60405180910390fd5b565b6000600a60009054906101000a900473ffffffffffffffffffffffffffffffffffffffff16905081600a60006101000a81548173ffffffffffffffffffffffffffffffffffffffff021916908373ffffffffffffffffffffffffffffffffffffffff1602179055508173ffffffffffffffffffffffffffffffffffffffff168173ffffffffffffffffffffffffffffffffffffffff167f8be0079c531659141344cd1fd0a4f28419497f9722a3daafe3b4186f6b6457e060405160405180910390a35050565b600073ffffffffffffffffffffffffffffffffffffffff168273ffffffffffffffffffffffffffffffffffffffff1603611fba57816040517f5b08ba18000000000000000000000000000000000000000000000000000000008152600401611fb191906132e1565b60405180910390fd5b80600560008573ffffffffffffffffffffffffffffffffffffffff1673ffffffffffffffffffffffffffffffffffffffff16815260200190815260200160002060008473ffffffffffffffffffffffffffffffffffffffff1673ffffffffffffffffffffffffffffffffffffffff16815260200190815260200160002060006101000a81548160ff0219169083151502179055508173ffffffffffffffffffffffffffffffffffffffff168373ffffffffffffffffffffffffffffffffffffffff167f17307eab39ab6107e8899845ad3d59bd9653f200f220920489ca2b5937696c31836040516120ab9190613170565b60405180910390a3505050565b60008373ffffffffffffffffffffffffffffffffffffffff163b1115612262578273ffffffffffffffffffffffffffffffffffffffff1663150b7a02868685856040518563ffffffff1660e01b81526004016121179493929190614739565b6020604051808303816000875af192505050801561215357506040513d601f19601f82011682018060405250810190612150919061479a565b60015b6121d7573d8060008114612183576040519150601f19603f3d011682016040523d82523d6000602084013e612188565b606091505b5060008151036121cf57836040517f64a0ae920000000000000000000000000000000000000000000000000000000081526004016121c691906132e1565b60405180910390fd5b805160208201fd5b63150b7a0260e01b7bffffffffffffffffffffffffffffffffffffffffffffffffffffffff1916817bffffffffffffffffffffffffffffffffffffffffffffffffffffffff19161461226057836040517f64a0ae9200000000000000000000000000000000000000000000000000000000815260040161225791906132e1565b60405180910390fd5b505b5050505050565b606060405180602001604052806000815250905090565b60606000600161228f84612773565b01905060008167ffffffffffffffff8111156122ae576122ad613665565b5b6040519080825280601f01601f1916602001820160405280156122e05781602001600182028036833780820191505090505b509050600082602083010190505b600115612343578080600190039150507f3031323334353637383961626364656600000000000000000000000000000000600a86061a8153600a8581612337576123366147c7565b5b049450600085036122ee575b819350505050919050565b60007f80ac58cd000000000000000000000000000000000000000000000000000000007bffffffffffffffffffffffffffffffffffffffffffffffffffffffff1916827bffffffffffffffffffffffffffffffffffffffffffffffffffffffff1916148061241957507f5b5e139f000000000000000000000000000000000000000000000000000000007bffffffffffffffffffffffffffffffffffffffffffffffffffffffff1916827bffffffffffffffffffffffffffffffffffffffffffffffffffffffff1916145b806124295750612428826128c6565b5b9050919050565b60006002600083815260200190815260200160002060009054906101000a900473ffffffffffffffffffffffffffffffffffffffff169050919050565b80806124a65750600073ffffffffffffffffffffffffffffffffffffffff168273ffffffffffffffffffffffffffffffffffffffff1614155b156125da5760006124b684611ce9565b9050600073ffffffffffffffffffffffffffffffffffffffff168373ffffffffffffffffffffffffffffffffffffffff161415801561252157508273ffffffffffffffffffffffffffffffffffffffff168173ffffffffffffffffffffffffffffffffffffffff1614155b801561253457506125328184611998565b155b1561257657826040517fa9fbf51f00000000000000000000000000000000000000000000000000000000815260040161256d91906132e1565b60405180910390fd5b81156125d857838573ffffffffffffffffffffffffffffffffffffffff168273ffffffffffffffffffffffffffffffffffffffff167f8c5be1e5ebec7d5bd14f71427d1e84f3dd0314c0f7b2291e5b200ac8c7c3b92560405160405180910390a45b505b836004600085815260200190815260200160002060006101000a81548173ffffffffffffffffffffffffffffffffffffffff021916908373ffffffffffffffffffffffffffffffffffffffff16021790555050505050565b600080612640858585612930565b9050600073ffffffffffffffffffffffffffffffffffffffff168173ffffffffffffffffffffffffffffffffffffffff16036126845761267f84612b4a565b6126c3565b8473ffffffffffffffffffffffffffffffffffffffff168173ffffffffffffffffffffffffffffffffffffffff16146126c2576126c18185612b93565b5b5b600073ffffffffffffffffffffffffffffffffffffffff168573ffffffffffffffffffffffffffffffffffffffff16036127055761270084612c7e565b612744565b8473ffffffffffffffffffffffffffffffffffffffff168173ffffffffffffffffffffffffffffffffffffffff1614612743576127428585612d4f565b5b5b809150509392505050565b6127598383612dda565b61276e612764611dae565b60008585856120b8565b505050565b600080600090507a184f03e93ff9f4daa797ed6e38ed64bf6a1f01000000000000000083106127d1577a184f03e93ff9f4daa797ed6e38ed64bf6a1f01000000000000000083816127c7576127c66147c7565b5b0492506040810190505b6d04ee2d6d415b85acef8100000000831061280e576d04ee2d6d415b85acef81000000008381612804576128036147c7565b5b0492506020810190505b662386f26fc10000831061283d57662386f26fc100008381612833576128326147c7565b5b0492506010810190505b6305f5e1008310612866576305f5e100838161285c5761285b6147c7565b5b0492506008810190505b612710831061288b576127108381612881576128806147c7565b5b0492506004810190505b606483106128ae57606483816128a4576128a36147c7565b5b0492506002810190505b600a83106128bd576001810190505b80915050919050565b60007f01ffc9a7000000000000000000000000000000000000000000000000000000007bffffffffffffffffffffffffffffffffffffffffffffffffffffffff1916827bffffffffffffffffffffffffffffffffffffffffffffffffffffffff1916149050919050565b60008061293c84612430565b9050600073ffffffffffffffffffffffffffffffffffffffff168373ffffffffffffffffffffffffffffffffffffffff161461297e5761297d818486612ed3565b5b600073ffffffffffffffffffffffffffffffffffffffff168173ffffffffffffffffffffffffffffffffffffffff1614612a0f576129c060008560008061246d565b6001600360008373ffffffffffffffffffffffffffffffffffffffff1673ffffffffffffffffffffffffffffffffffffffff168152602001908152602001600020600082825403925050819055505b600073ffffffffffffffffffffffffffffffffffffffff168573ffffffffffffffffffffffffffffffffffffffff1614612a92576001600360008773ffffffffffffffffffffffffffffffffffffffff1673ffffffffffffffffffffffffffffffffffffffff168152602001908152602001600020600082825401925050819055505b846002600086815260200190815260200160002060006101000a81548173ffffffffffffffffffffffffffffffffffffffff021916908373ffffffffffffffffffffffffffffffffffffffff160217905550838573ffffffffffffffffffffffffffffffffffffffff168273ffffffffffffffffffffffffffffffffffffffff167fddf252ad1be2c89b69c2b068fc378daa952ba7f163c4a11628f55a4df523b3ef60405160405180910390a4809150509392505050565b6008805490506009600083815260200190815260200160002081905550600881908060018154018082558091505060019003906000526020600020016000909190919091505550565b6000612b9e83611075565b90506000600760008481526020019081526020016000205490506000600660008673ffffffffffffffffffffffffffffffffffffffff1673ffffffffffffffffffffffffffffffffffffffff1681526020019081526020016000209050828214612c4a5760008160008581526020019081526020016000205490508082600085815260200190815260200160002081905550826007600083815260200190815260200160002081905550505b6007600085815260200190815260200160002060009055806000848152602001908152602001600020600090555050505050565b60006001600880549050612c929190614152565b9050600060096000848152602001908152602001600020549050600060088381548110612cc257612cc1614123565b5b906000526020600020015490508060088381548110612ce457612ce3614123565b5b906000526020600020018190555081600960008381526020019081526020016000208190555060096000858152602001908152602001600020600090556008805480612d3357612d326147f6565b5b6001900381819060005260206000200160009055905550505050565b60006001612d5c84611075565b612d669190614152565b905081600660008573ffffffffffffffffffffffffffffffffffffffff1673ffffffffffffffffffffffffffffffffffffffff168152602001908152602001600020600083815260200190815260200160002081905550806007600084815260200190815260200160002081905550505050565b600073ffffffffffffffffffffffffffffffffffffffff168273ffffffffffffffffffffffffffffffffffffffff1603612e4c5760006040517f64a0ae92000000000000000000000000000000000000000000000000000000008152600401612e4391906132e1565b60405180910390fd5b6000612e5a83836000611dc8565b9050600073ffffffffffffffffffffffffffffffffffffffff168173ffffffffffffffffffffffffffffffffffffffff1614612ece5760006040517f73c6ac6e000000000000000000000000000000000000000000000000000000008152600401612ec591906132e1565b60405180910390fd5b505050565b612ede838383612f97565b612f9257600073ffffffffffffffffffffffffffffffffffffffff168373ffffffffffffffffffffffffffffffffffffffff1603612f5357806040517f7e273289000000000000000000000000000000000000000000000000000000008152600401612f4a919061344b565b60405180910390fd5b81816040517f177e802f000000000000000000000000000000000000000000000000000000008152600401612f899291906140fa565b60405180910390fd5b505050565b60008073ffffffffffffffffffffffffffffffffffffffff168373ffffffffffffffffffffffffffffffffffffffff161415801561304f57508273ffffffffffffffffffffffffffffffffffffffff168473ffffffffffffffffffffffffffffffffffffffff161480613010575061300f8484611998565b5b8061304e57508273ffffffffffffffffffffffffffffffffffffffff1661303683611d71565b73ffffffffffffffffffffffffffffffffffffffff16145b5b90509392505050565b604051806101200160405280600081526020016060815260200160008152602001600081526020016000815260200160008152602001600073ffffffffffffffffffffffffffffffffffffffff168152602001600015158152602001600081525090565b6000604051905090565b600080fd5b600080fd5b60007fffffffff0000000000000000000000000000000000000000000000000000000082169050919050565b613105816130d0565b811461311057600080fd5b50565b600081359050613122816130fc565b92915050565b60006020828403121561313e5761313d6130c6565b5b600061314c84828501613113565b91505092915050565b60008115159050919050565b61316a81613155565b82525050565b60006020820190506131856000830184613161565b92915050565b600081519050919050565b600082825260208201905092915050565b60005b838110156131c55780820151818401526020810190506131aa565b60008484015250505050565b6000601f19601f8301169050919050565b60006131ed8261318b565b6131f78185613196565b93506132078185602086016131a7565b613210816131d1565b840191505092915050565b6000602082019050818103600083015261323581846131e2565b905092915050565b6000819050919050565b6132508161323d565b811461325b57600080fd5b50565b60008135905061326d81613247565b92915050565b600060208284031215613289576132886130c6565b5b60006132978482850161325e565b91505092915050565b600073ffffffffffffffffffffffffffffffffffffffff82169050919050565b60006132cb826132a0565b9050919050565b6132db816132c0565b82525050565b60006020820190506132f660008301846132d2565b92915050565b613305816132c0565b811461331057600080fd5b50565b600081359050613322816132fc565b92915050565b6000806040838503121561333f5761333e6130c6565b5b600061334d85828601613313565b925050602061335e8582860161325e565b9150509250929050565b6133718161323d565b82525050565b60006101208201905061338d600083018c613368565b818103602083015261339f818b6131e2565b90506133ae604083018a613368565b6133bb6060830189613368565b6133c86080830188613368565b6133d560a0830187613368565b6133e260c08301866132d2565b6133ef60e0830185613161565b6133fd610100830184613368565b9a9950505050505050505050565b60008060408385031215613422576134216130c6565b5b60006134308582860161325e565b92505060206134418582860161325e565b9150509250929050565b60006020820190506134606000830184613368565b92915050565b60008060006060848603121561347f5761347e6130c6565b5b600061348d86828701613313565b935050602061349e86828701613313565b92505060406134af8682870161325e565b9150509250925092565b60006040820190506134ce6000830185613368565b6134db6020830184613368565b9392505050565b6000602082840312156134f8576134f76130c6565b5b600061350684828501613313565b91505092915050565b600081519050919050565b600082825260208201905092915050565b6000819050602082019050919050565b6135448161323d565b82525050565b6000613556838361353b565b60208301905092915050565b6000602082019050919050565b600061357a8261350f565b613584818561351a565b935061358f8361352b565b8060005b838110156135c05781516135a7888261354a565b97506135b283613562565b925050600181019050613593565b5085935050505092915050565b600060208201905081810360008301526135e7818461356f565b905092915050565b6135f881613155565b811461360357600080fd5b50565b600081359050613615816135ef565b92915050565b60008060408385031215613632576136316130c6565b5b600061364085828601613313565b925050602061365185828601613606565b9150509250929050565b600080fd5b600080fd5b7f4e487b7100000000000000000000000000000000000000000000000000000000600052604160045260246000fd5b61369d826131d1565b810181811067ffffffffffffffff821117156136bc576136bb613665565b5b80604052505050565b60006136cf6130bc565b90506136db8282613694565b919050565b600067ffffffffffffffff8211156136fb576136fa613665565b5b613704826131d1565b9050602081019050919050565b82818337600083830152505050565b600061373361372e846136e0565b6136c5565b90508281526020810184848401111561374f5761374e613660565b5b61375a848285613711565b509392505050565b600082601f8301126137775761377661365b565b5b8135613787848260208601613720565b91505092915050565b600080600080608085870312156137aa576137a96130c6565b5b60006137b887828801613313565b94505060206137c987828801613313565b93505060406137da8782880161325e565b925050606085013567ffffffffffffffff8111156137fb576137fa6130cb565b5b61380787828801613762565b91505092959194509250565b600081519050919050565b600082825260208201905092915050565b6000819050602082019050919050565b600082825260208201905092915050565b600061385b8261318b565b613865818561383f565b93506138758185602086016131a7565b61387e816131d1565b840191505092915050565b613892816132c0565b82525050565b6138a181613155565b82525050565b6000610120830160008301516138c0600086018261353b565b50602083015184820360208601526138d88282613850565b91505060408301516138ed604086018261353b565b506060830151613900606086018261353b565b506080830151613913608086018261353b565b5060a083015161392660a086018261353b565b5060c083015161393960c0860182613889565b5060e083015161394c60e0860182613898565b5061010083015161396161010086018261353b565b508091505092915050565b600061397883836138a7565b905092915050565b6000602082019050919050565b600061399882613813565b6139a2818561381e565b9350836020820285016139b48561382f565b8060005b858110156139f057848403895281516139d1858261396c565b94506139dc83613980565b925060208a019950506001810190506139b8565b50829750879550505050505092915050565b60006020820190508181036000830152613a1c818461398d565b905092915050565b600067ffffffffffffffff821115613a3f57613a3e613665565b5b613a48826131d1565b9050602081019050919050565b6000613a68613a6384613a24565b6136c5565b905082815260208101848484011115613a8457613a83613660565b5b613a8f848285613711565b509392505050565b600082601f830112613aac57613aab61365b565b5b8135613abc848260208601613a55565b91505092915050565b60008060008060008060c08789031215613ae257613ae16130c6565b5b600087013567ffffffffffffffff811115613b0057613aff6130cb565b5b613b0c89828a01613a97565b9650506020613b1d89828a0161325e565b9550506040613b2e89828a0161325e565b9450506060613b3f89828a0161325e565b9350506080613b5089828a01613606565b92505060a0613b6189828a0161325e565b9150509295509295509295565b60008060408385031215613b8557613b846130c6565b5b6000613b9385828601613313565b9250506020613ba485828601613313565b9150509250929050565b600061012083016000830151613bc7600086018261353b565b5060208301518482036020860152613bdf8282613850565b9150506040830151613bf4604086018261353b565b506060830151613c07606086018261353b565b506080830151613c1a608086018261353b565b5060a0830151613c2d60a086018261353b565b5060c0830151613c4060c0860182613889565b5060e0830151613c5360e0860182613898565b50610100830151613c6861010086018261353b565b508091505092915050565b60006020820190508181036000830152613c8d8184613bae565b905092915050565b7f4e487b7100000000000000000000000000000000000000000000000000000000600052602260045260246000fd5b60006002820490506001821680613cdc57607f821691505b602082108103613cef57613cee613c95565b5b50919050565b7f4576656e74206e6f7420666f756e640000000000000000000000000000000000600082015250565b6000613d2b600f83613196565b9150613d3682613cf5565b602082019050919050565b60006020820190508181036000830152613d5a81613d1e565b9050919050565b6000606082019050613d7660008301866132d2565b613d836020830185613368565b613d9060408301846132d2565b949350505050565b7f4576656e742068617320616c7265616479207061737365640000000000000000600082015250565b6000613dce601883613196565b9150613dd982613d98565b602082019050919050565b60006020820190508181036000830152613dfd81613dc1565b9050919050565b7f496e73756666696369656e74207061796d656e74000000000000000000000000600082015250565b6000613e3a601483613196565b9150613e4582613e04565b602082019050919050565b60006020820190508181036000830152613e6981613e2d565b9050919050565b7f496e76616c696420736561742049440000000000000000000000000000000000600082015250565b6000613ea6600f83613196565b9150613eb182613e70565b602082019050919050565b60006020820190508181036000830152613ed581613e99565b9050919050565b7f5365617420697320616c726561647920736f6c64000000000000000000000000600082015250565b6000613f12601483613196565b9150613f1d82613edc565b602082019050919050565b60006020820190508181036000830152613f4181613f05565b9050919050565b6000608082019050613f5d6000830187613368565b613f6a6020830186613368565b613f7760408301856132d2565b613f846060830184613368565b95945050505050565b7f4576656e7420697320736f6c64206f7574000000000000000000000000000000600082015250565b6000613fc3601183613196565b9150613fce82613f8d565b602082019050919050565b60006020820190508181036000830152613ff281613fb6565b9050919050565b6000819050919050565b6000819050919050565b600061402861402361401e84613ff9565b614003565b61323d565b9050919050565b6140388161400d565b82525050565b60006080820190506140536000830187613368565b6140606020830186613368565b61406d60408301856132d2565b61407a606083018461402f565b95945050505050565b7f4e487b7100000000000000000000000000000000000000000000000000000000600052601160045260246000fd5b60006140bd8261323d565b91507fffffffffffffffffffffffffffffffffffffffffffffffffffffffffffffffff82036140ef576140ee614083565b5b600182019050919050565b600060408201905061410f60008301856132d2565b61411c6020830184613368565b9392505050565b7f4e487b7100000000000000000000000000000000000000000000000000000000600052603260045260246000fd5b600061415d8261323d565b91506141688361323d565b92508282039050818111156141805761417f614083565b5b92915050565b600081905092915050565b600061419c8261318b565b6141a68185614186565b93506141b68185602086016131a7565b80840191505092915050565b60006141ce8285614191565b91506141da8284614191565b91508190509392505050565b7f4576656e742064617465206d75737420626520696e2074686520667574757265600082015250565b600061421c602083613196565b9150614227826141e6565b602082019050919050565b6000602082019050818103600083015261424b8161420f565b9050919050565b7f5469636b6574207072696365206d75737420626520677265617465722074686160008201527f6e20300000000000000000000000000000000000000000000000000000000000602082015250565b60006142ae602383613196565b91506142b982614252565b604082019050919050565b600060208201905081810360008301526142dd816142a1565b9050919050565b7f546f74616c207365617473206d7573742062652067726561746572207468616e60008201527f2030000000000000000000000000000000000000000000000000000000000000602082015250565b6000614340602283613196565b915061434b826142e4565b604082019050919050565b6000602082019050818103600083015261436f81614333565b9050919050565b60008190508160005260206000209050919050565b60006020601f8301049050919050565b600082821b905092915050565b6000600883026143d87fffffffffffffffffffffffffffffffffffffffffffffffffffffffffffffffff8261439b565b6143e2868361439b565b95508019841693508086168417925050509392505050565b600061441561441061440b8461323d565b614003565b61323d565b9050919050565b6000819050919050565b61442f836143fa565b61444361443b8261441c565b8484546143a8565b825550505050565b600090565b61445861444b565b614463818484614426565b505050565b5b818110156144875761447c600082614450565b600181019050614469565b5050565b601f8211156144cc5761449d81614376565b6144a68461438b565b810160208510156144b5578190505b6144c96144c18561438b565b830182614468565b50505b505050565b600082821c905092915050565b60006144ef600019846008026144d1565b1980831691505092915050565b600061450883836144de565b9150826002028217905092915050565b6145218261318b565b67ffffffffffffffff81111561453a57614539613665565b5b6145448254613cc4565b61454f82828561448b565b600060209050601f8311600181146145825760008415614570578287015190505b61457a85826144fc565b8655506145e2565b601f19841661459086614376565b60005b828110156145b857848901518255600182019150602085019450602081019050614593565b868310156145d557848901516145d1601f8916826144de565b8355505b6001600288020188555050505b505050505050565b600060c0820190506145ff6000830189613368565b818103602083015261461181886131e2565b90506146206040830187613368565b61462d6060830186613368565b61463a6080830185613368565b61464760a08301846132d2565b979650505050505050565b7f546f74616c20737570706c79206d75737420626520677265617465722074686160008201527f6e20300000000000000000000000000000000000000000000000000000000000602082015250565b60006146ae602383613196565b91506146b982614652565b604082019050919050565b600060208201905081810360008301526146dd816146a1565b9050919050565b600081519050919050565b600082825260208201905092915050565b600061470b826146e4565b61471581856146ef565b93506147258185602086016131a7565b61472e816131d1565b840191505092915050565b600060808201905061474e60008301876132d2565b61475b60208301866132d2565b6147686040830185613368565b818103606083015261477a8184614700565b905095945050505050565b600081519050614794816130fc565b92915050565b6000602082840312156147b0576147af6130c6565b5b60006147be84828501614785565b91505092915050565b7f4e487b7100000000000000000000000000000000000000000000000000000000600052601260045260246000fd5b7f4e487b7100000000000000000000000000000000000000000000000000000000600052603160045260246000fdfea26469706673582212204c0336cdc69eaa4da0784ca2015a818f471ee028b81b6259f2eaba70b472c60b64736f6c63430008180033",
  "linkReferences": {},
  "deployedLinkReferences": {}
}